{
  "contractName": "MetaCoin",
  "abi": [
    {
      "inputs": [],
      "payable": false,
      "stateMutability": "nonpayable",
      "type": "constructor"
    },
    {
      "constant": false,
      "inputs": [
        {
          "name": "receiver",
          "type": "address"
        },
        {
          "name": "amount",
          "type": "uint256"
        }
      ],
      "name": "sendCoin",
      "outputs": [
        {
          "name": "",
          "type": "bool"
        }
      ],
      "payable": false,
      "stateMutability": "nonpayable",
      "type": "function"
    },
    {
      "constant": true,
      "inputs": [
        {
          "name": "addr",
          "type": "address"
        }
      ],
      "name": "getBalance",
      "outputs": [
        {
          "name": "",
          "type": "uint256"
        }
      ],
      "payable": false,
      "stateMutability": "view",
      "type": "function"
    }
  ],
  "bytecode": "0x6060604052341561000f57600080fd5b6127106000803373ffffffffffffffffffffffffffffffffffffffff1673ffffffffffffffffffffffffffffffffffffffff16815260200190815260200160002081905550610260806100636000396000f30060606040526004361061004c576000357c0100000000000000000000000000000000000000000000000000000000900463ffffffff16806390b98a1114610051578063f8b2cb4f146100ab575b600080fd5b341561005c57600080fd5b610091600480803573ffffffffffffffffffffffffffffffffffffffff169060200190919080359060200190919050506100f8565b604051808215151515815260200191505060405180910390f35b34156100b657600080fd5b6100e2600480803573ffffffffffffffffffffffffffffffffffffffff169060200190919050506101ec565b6040518082815260200191505060405180910390f35b6000816000803373ffffffffffffffffffffffffffffffffffffffff1673ffffffffffffffffffffffffffffffffffffffff16815260200190815260200160002054101561014957600090506101e6565b816000803373ffffffffffffffffffffffffffffffffffffffff1673ffffffffffffffffffffffffffffffffffffffff16815260200190815260200160002060008282540392505081905550816000808573ffffffffffffffffffffffffffffffffffffffff1673ffffffffffffffffffffffffffffffffffffffff16815260200190815260200160002060008282540192505081905550600190505b92915050565b60008060008373ffffffffffffffffffffffffffffffffffffffff1673ffffffffffffffffffffffffffffffffffffffff1681526020019081526020016000205490509190505600a165627a7a72305820454a2c9a102b47a7fcc8ecc695dddb667164cf8a3974d1fbf786f14dbdfdfcfb0029",
  "source": "pragma solidity ^0.4.18;\r\n\r\n// This is just a simple example of a coin-like contract.\r\n// It is not standards compatible and cannot be expected to talk to other\r\n// coin/token contracts. If you want to create a standards-compliant\r\n// token, see: https://github.com/ConsenSys/Tokens. Cheers!\r\n\r\n// Slightly modified for 0.4.18 Solidity style. Removed the library for simplicity.\r\n\r\ncontract MetaCoin {\r\n\tmapping (address => uint) balances;\r\n\r\n\tfunction MetaCoin() public {\r\n\t\tbalances[msg.sender] = 10000;\r\n\t}\r\n\r\n\tfunction sendCoin(address receiver, uint amount)\r\n\t    public\r\n\t    returns (bool)\r\n    {\r\n\t\tif (balances[msg.sender] < amount) {\r\n            return false;\r\n        }\r\n\t\tbalances[msg.sender] -= amount;\r\n\t\tbalances[receiver] += amount;\r\n\t\treturn true;\r\n\t}\r\n\r\n\tfunction getBalance(address addr)\r\n\t    public\r\n\t    view\r\n\t    returns (uint)\r\n    {\r\n  \t    return balances[addr];\r\n\t}\r\n}\r\n",
  "sourcePath": "C:\\Users\\Andrew\\Development\\react-ts-truffle-metacoin\\contracts\\MetaCoin.sol",
  "compiler": {
    "name": "solc",
    "version": "0.4.19+commit.c4cbbb05.Emscripten.clang"
  },
  "schemaVersion": "2.0.0",
  "updatedAt": "2018-03-26T22:23:24.467Z"
}